:020000040000FA
:10000000B008002065010000690100006B010000DC
:1000100000000000000000000000000000000000E0
:100020000000000000000000000000006D01000062
:1000300000000000000000006F010000F91900003E
:1000400073010000730100007301000073010000E0
:1000500000000000000000007301000073010000B8
:100060007301000000000000730100007301000034
:1000700073010000730100007301000073010000B0
:100080007301000000000000730100007301000014
:100090000000000073010000730100007301000004
:1000A00073010000730100007301000000000000F4
:1000B0007301000073010000231A000073010000A7
:1000C00000F002F800F03EF80CA030C80838241800
:1000D0002D18A246671EAB4654465D46AC4201D180
:1000E00000F030F87E460F3E0FCCB6460126334274
:1000F00000D0FB1AA246AB4633431847582C0000E9
:10010000782C0000103A02D378C878C1FAD8520788
:1001100001D330C830C101D504680C6070470000BD
:100120000023002400250026103A01D378C1FBD813
:10013000520700D330C100D50B6070471FB51FBDFB
:1001400010B510BD02F094FD1146FFF7F7FF01F066
:1001500015FA02F0ACFD03B4FFF7F2FF03BC02F0A6
:10016000B1FD000006480047FEE7FEE7FEE7FEE7B8
:10017000FEE7FEE703480449044A054B70470000C8
:10018000C1000000B0000020B0080020B004002032
:10019000B004002010B50446944884420BD10122DB
:1001A0001106934800F039FB00220121090690480E
:1001B00000F033FB2BE08F4884420BD10122510623
:1001C0008B4800F02AFB002201214906884800F0F4
:1001D00024FB1CE0884884420BD10122910684480C
:1001E00000F01BFB002201218906814800F015FB6D
:1001F0000DE0824884420AD10122D1067C4800F0F9
:100200000CFB00220121C906794800F006FB10BD55
:1002100000207649403188607649403188607649CF
:10022000403188607549403188607047F0B50A46B2
:1002300000210023002400BF34E001258D402B461F
:1002400015681D402C469C422BD1856C8F000F26D3
:10025000BE40B54385641579012D02D01579022D74
:1002600013D1056801268E40B54305600568012657
:100270008E4035430560456801268E40B543456094
:10028000456896798E4035434560C56B4F0003261F
:10029000BE40B543C563D5794E00B540C66B354306
:1002A000C563491C0829C8D3F0BDFF2101600021A6
:1002B000017141718171C171704702460020D3689C
:1002C0000B40002B01D0012000E0002070470146C8
:1002D000C868C0B27047002905D0426BFF230133C4
:1002E0001A43426304E0426BFF2301339A434263A3
:1002F0007047002A03D0436B0B43436302E0436B18
:100300008B4343637047002904D0826B10231A4348
:10031000826303E0826B10239A4382637047826B8F
:10032000120912018263826B0A438263704702469C
:10033000002093680B40002B01D0012000E000203A
:10034000704701468868C0B27047C1627047016358
:100350007047002A01D0C16200E0016370478160EC
:10036000704782684A408260704730B5C36B4D0069
:100370000324AC40A343C363C36B4D001446AC409D
:100380002343C36330BD10B5002A05D1436C01245B
:100390008C402343436404E0436C01248C40A3431A
:1003A000436410BD70B500230024856C0F26964071
:1003B000B5432B4696000D46B5401D432C4684643C
:1003C00070BDF0B5002300244D07EE0E1546B54074
:1003D0002B46856C4E07F70E0F26BE40B54385644D
:1003E000856C1D432C468464F0BD00000010024063
:1003F000000002400014024000180240001C0240AD
:10040000214988617047204988607047012806D1DA
:100410001D494968012211431B4A516005E01A49F0
:10042000496849084900184A516070471648C06831
:100430007047AA2014490860704755201249086087
:100440007047AA20104908607047014600200E4AF4
:1004500012690A40002A01D0012000E00020704704
:10046000002806D00849496802221143064A516013
:1004700005E00549496802229143034A51607047EB
:10048000012001494861704700240040F848806815
:1004900040094001F649886008468068400D4005E3
:1004A00088607047F34A0266826AD20AD202826288
:1004B000826A0A438262EF4A521E02667047ED4A20
:1004C0000266026B920A92020263026B0A430263A3
:1004D000E84A521E0266704710B500230C461443CA
:1004E0002346E44C0466C46A24092401C462C46A35
:1004F0001C43C462DF4C641E046610BD10B50023AB
:100500000C4614432346DB4C0466C46A24092401C8
:10051000C462C46A1C43C462D64C641E046610BD27
:1005200018B50146002300930022002000BF8B6A0B
:100530000124240323401A46009B5B1C00930524DE
:100540002403009BA34203D001231B039A42EED055
:1005500001231B039A4201D1012000E0002018BDB5
:1005600038B502460024009400230020C14C1466D4
:10057000D46A3025AC43D462D46A0C43D46200BF41
:10058000D46A40252C402346009C641C0094052519
:100590002D03009CAC4201D0402BF1D0402B01D167
:1005A000012000E00020B34C641E146638BD38B54D
:1005B00002460024009400230020AE4C1466146B05
:1005C000C025AC431463146B0C43146300BF146B5D
:1005D00001252D032C402346009C641C0094052516
:1005E0002D03009CAC4203D001242403A342EED08F
:1005F00001242403A34201D1012000E000209D4CEE
:10060000641E146638BD38B502460B4600240094BB
:1006100000210020974C146600BF546B40252C40ED
:100620002146009C641C009405252D03009CAC42CF
:1006300001D04029F1D0402901D1012000E0002063
:100640008C4C641E146638BD70B5002200238A4CA1
:100650004D68AD020E68F60235438E68760235436A
:100660004E693543CE68360235430E69360135434F
:100670002B4625461D432A467E4D056642636D1E68
:10068000056670BD7B4A0266002905D0426B0123D6
:10069000DB021A43426304E0426B0123DB029A430C
:1006A0004263744A521E02667047724A0266816350
:1006B000521E0266704710B5C36B5B0E5B06C363C8
:1006C000C36B0C062343C363C36B1343C36310BDE7
:1006D000C26B01235B069A43C263002903D0C26B3D
:1006E0001A43C26304E0C26B01235B069A43C263F0
:1006F000704770B5034600200024186A5C6B80B216
:100700005D4D2843A4B22C43012907D1002A02D011
:100710000125284327E04008400024E0022909D1B0
:10072000002A02D0022528431DE002260546B543D3
:10073000284618E0042909D1002A02D004252843BC
:1007400011E004260546B54328460CE0FF25013597
:10075000A94208D1002A01D02C4304E0FF2601362B
:100760002546B5432C46434D1D6618625C636D1EDD
:100770001D6670BD0A4600210B46134319463E4BC9
:1007800019433C4B036641625B1E0366704710B51C
:100790000A4600210169072424020B46A343194697
:1007A0000B4613431946016110BD10B50A460021DE
:1007B0000169002A03D001231B03194304E001242B
:1007C00024030B46A3431946016110BD0A460021CC
:1007D0000169090A09020B46134319460161704772
:1007E0000146086A4007400F70470160704741604A
:1007F0007047002A03D083680B43836002E083685C
:100800008B4383607047002A03D0C3680B43C360E7
:1008100002E0C3688B43C3607047164B0366002A2F
:1008200003D0436C0B43436402E0436C8B4343644B
:10083000104B5B1E036670470E4A0266002903D008
:100840000D4A521C826401E00B4A8264094A521E1E
:100850000266704710B5074C641E0C432346054CD6
:100860000466002A0AD084691C43846109E0000000
:10087000000002409966AA550000695A84699C43A9
:1008800084610D4C046610BD10B5024600230020A3
:10089000D3691C460C40002C01D0012000E0002050
:1008A00010BD064A13460B431A46034B5B1C0366F6
:1008B00002645B1E036670479866AA550000695A79
:1008C0000146002204E0501CC2B208460A38C1B2F8
:1008D0000A29F8DA1007000E08437047014600BFE6
:1008E000F020084000110A23584302460807000F71
:1008F0008018C0B2704718B501460023009300204D
:100900000022CA238B6253238B620B6A0424A34305
:100910000B6200BF0B6A042423401A46009B5B1C39
:100920000093E403009BA34201D0002AF2D00B6A9B
:1009300004242340002B01D0012000E00020FF23ED
:100940008B6218BD18B501460023009300200022D9
:100950000B6A02242340002B1ED10B6A5B085B004C
:100960000B620B6A012423430B6200BF0B6A022453
:1009700023401A46009B5B1C0093E403009BA342A8
:1009800001D0002AF2D00B6A02242340002B01D0B0
:10099000012002E0002000E0012018BD78B50446E7
:1009A0000020009000250026CA20A0625320A062EB
:1009B000F648FFF7C7FF002800D138E0002020608C
:1009C000E06000BF206A0221084005460098401CF4
:1009D0000090C9030098884201D0002DF2D0206A0F
:1009E00002210840002801D1002620E020680020D4
:1009F0002060606800206060A0680020A060E0685F
:100A00000020E060206900202061606900206061B2
:100A1000A0690020A061E0690020E0616062DB481D
:100A2000FFF769FF002801D1002600E00126FF2022
:100A3000A062304678BD08B5002200920021026A0B
:100A400052085200026200BF026A02231A40114695
:100A5000009A521C0092DB03009A9A4201D00129AD
:100A6000F2D008BD70B504460D460026CA20A0622B
:100A70005320A0626068800A8002606060686968D4
:100A8000084360606068032109048843606060680F
:100A9000A96808436060BD48FFF754FF002800D1F3
:100AA0000BE02068042188432060206829680843FF
:100AB0002060B648FFF7BFFF0126FF20A062304646
:100AC00070BD04220A60B24A4A6000228A60704700
:100AD000002902D0FF22826203E0CA2282625322EE
:100AE00082627047CA22826253228262002905D044
:100AF000426801231B051A43426004E04268012357
:100B00001B059A434260FF2282627047CA228262BA
:100B100053228262426803231B049A434260426864
:100B20000A434260FF2282627047CA2282625322D5
:100B30008262002904D0026801231A43026003E0A4
:100B40000268520852000260FF2282627047FEB5BE
:100B500005460E461446002001900090002E07D155
:100B6000286804210840002800D100E000BF07E009
:100B7000286804210840002800D100E000BF00BF21
:100B8000002E0ED020780006A18809040843A16831
:100B900009020843E1680843218A49050843019096
:100BA00017E02078FFF78CFE07062079FFF788FE14
:100BB00000040743207AFFF783FE00020743207BEF
:100BC000FFF77EFE0743207CFFF77AFE40050743D0
:100BD0000197CA20A8625320A8626C48FFF7B2FEB2
:100BE000002801D1009017E06A4901980840A860E8
:100BF0006648FFF720FF2868C007C00F002809D10A
:100C00006248FFF778FE002801D1009004E001203F
:100C1000009001E001200090FF20A8620098FEBD36
:100C200000220A614A608A60CA600A607047F8B5AB
:100C300006460F4614460025B0685649084005464A
:100C4000306804210840042805D11F2000042840F2
:100C5000000C606004E01F2000042840000C60606D
:100C6000072000062840000E20607F200002284058
:100C7000000AA0606806400EE060012040052840A0
:100C8000400D2061002F13D12078FFF727FE206050
:100C90002079FFF723FE6060207AFFF71FFEA06037
:100CA000207BFFF71BFEE060207CFFF717FE206132
:100CB000F8BDFEB505460E46144600200190009092
:100CC000002E08D1102120680840102803D1206888
:100CD00088430A302060002E00D108E02078FFF71A
:100CE000FDFD01902079FFF7F9FD019000BF002E76
:100CF0000BD0A0890004A168C90308432168090238
:100D0000084361680843019012E0207BFFF7D8FD9B
:100D10000704207AFFF7D4FDC00307432078FFF7CC
:100D2000CFFD000207432079FFF7CAFD0743019773
:100D3000CA20A8625320A8621448FFF703FE0028C7
:100D400001D1009017E0144901980840E8600F486D
:100D5000FFF771FE2868C007C00F002809D10B48B3
:100D6000FFF7C9FD002801D1009004E001200090A8
:100D700001E001200090FF20A8620098FEBD012242
:100D80004A600A600022CA608A60704700300040F2
:100D9000FF0300007F7F3F073F9FFF00F8B5064637
:100DA0000F4614460025F068F74908400546FF2025
:100DB00000042840000CE0600120C0032840C00B64
:100DC000A0601F2000022840000A2060A806800EB4
:100DD0006060002F0FD1207BFFF780FDE06020785E
:100DE000FFF77CFD20602079FFF778FD6060207AB6
:100DF000FFF774FDA060F8BDFFB581B00F461D463A
:100E000000260024CA210198816253210198816241
:100E10000398007901281ED1019800680421084038
:100E2000002800D100E000BF012080060443002F0D
:100E30000AD12879FFF744FD00040643287CFFF718
:100E40003FFD400506430BE0A88800040643288ABE
:100E50004005064304E001218906204688430446F4
:100E60000398407901280DD140060443002F05D195
:100E7000287AFFF725FD0002064308E0A868000273
:100E8000064304E0012149062046884304460398AE
:100E9000807901280BD100060443002F04D1287B60
:100EA000FFF70EFD064307E0E868064304E0012172
:100EB00009062046884304460398C07801280DD1CE
:100EC000C0060443002F05D12878FFF7F9FC00067F
:100ED000064308E028780006064304E00121C9061D
:100EE00020468843044603980078012816D18007DD
:100EF0000443002F0BD12021485DFFF7E1FC0004E3
:100F00000443287FFFF7DCFCC00304430BE0288C7C
:100F100000040443E869C003044304E00121890795
:100F20002046884304460398407801280DD14007A5
:100F30000443002F05D1287DFFF7C2FC00020443C3
:100F400008E068690002044304E0012149072046E3
:100F5000884304460398807801280BD10007044396
:100F6000002F04D1287EFFF7ABFC044307E0A869FB
:100F7000044304E001210907204688430446019800
:100F8000066101984461FF210198816205B0F0BDBE
:100F9000CA228262532282628161FF22826270478A
:100FA00000220A614A608A60CA6000230B62CB613A
:100FB0004A618B617047F7B5074614460025002645
:100FC000386972490840054678696F4920390840F8
:100FD0000646012040052840400D20611F200004E6
:100FE0002840000C60607F2000022840000AA060BA
:100FF0006806400EE060072000062840000E2060D2
:10100000FF2000043040010C21620120C003304069
:10101000C10BE1611F2000023040000A6061F1064F
:10102000C90EA1610198002824D12079FFF756FC50
:101030006060207CFFF752FC2061207AFFF74EFCB5
:10104000A060207BFFF74AFCE0602078FFF746FCB9
:1010500020602021085DFFF741FC2062207FFFF720
:101060003DFCE061207DFFF739FC6061207EFFF7E9
:1010700035FCA061FEBD01468869C0B2704708B565
:1010800000230093CA23836253238362002A03D080
:1010900003680B43036002E003688B430360FF2394
:1010A000836208BDF0B504460D4616460027CA20E7
:1010B000A0625320A0623648FFF744FC002800D10C
:1010C00006E028463043E0613148FFF7B4FC0127D1
:1010D000FF20A0623846F0BDCA228262532282629B
:1010E000002904D0026802231A43026003E0026868
:1010F00002239A430260FF2282627047CA22826200
:1011000053228262002905D00268FF2301331A436B
:10111000026004E00268FF2301339A430260FF2269
:1011200082627047CA238362532383620B46134350
:10113000C361FF2383627047CA23836253238362A0
:10114000002A03D003680B43036002E003688B436B
:101150000360FF2383627047CA2383625323836241
:10116000002A03D003680B43036002E003688B434B
:101170000360FF238362704702460020136A0B401E
:10118000002B07D0012006E03F9FFF007F7F3F0735
:101190000030004000207047CA22826253228262DF
:1011A0004162FF228262704702460020136A0B40B0
:1011B000002B01D0012000E00020704710B504464C
:1011C000012210212048FFF728FB002210211E4891
:1011D000FFF723FB10BD10B500220B884C8823437A
:1011E0008C882343CC8823431A43026010BD00211E
:1011F000018041808180C1807047002904D002684D
:1012000040231A43026003E0026840239A430260CD
:101210007047C16070470146C868C0B27047002976
:1012200003D042680022426003E0426801231A436F
:10123000426070470246002093680B40002B01D0AB
:10124000012000E00020704700000240002815DB6C
:10125000C206D20E01219140BA4A116000BF00BF00
:1012600000BFBFF34F8F00BF00BF00BF00BF00BF74
:1012700000BFBFF36F8F00BF00BF00BF704710B546
:1012800004460120800784420AD101221146AE485B
:10129000FFF7C3FA00220121AB48FFF7BEFA0CE0CA
:1012A000AA48844209D101220221A748FFF7B5FAD2
:1012B00000220221A448FFF7B0FA10BDF0B58BB0B0
:1012C00004460E46154600272068C021884320604A
:1012D00020680121490288432060A879002802D0B3
:1012E000A87902280AD12068A979890108432060D9
:1012F0002068297949020843206081E0A879012803
:1013000002D0A87903287BD12068A97989010843F4
:101310002060206829794902084320606879002804
:101320003ED00E20FFF792FF0F20FFF78FFFA0693E
:10133000012109048843A0612968480101F04BFBA1
:10134000059104902979481C01F03DFB0022804B57
:101350000191009001F042FB03910290059B049AD9
:1013600001F0ECF800227B4B0791069001F0B6F8F3
:101370000991089000F0F8FE0746384601F052FC4B
:1013800000B201210904081A7060384601F04AFCD5
:1013900000B201210904081AB061E02030602FE09A
:1013A0000020A061A069012109040843A061296807
:1013B000480101F010FB059104902979481C01F0C7
:1013C00002FB0022624B0191009001F007FB0391A8
:1013D0000290059B049A01F0B1F800225D4B079141
:1013E000069001F07BF80991089000F0BDFE0746D9
:1013F000384601F017FC00B2401EA1690843A06105
:101400000BB0F0BD4B21C901016000218171017158
:101410004171704710B503681024A343036001298C
:101420000AD1002A03D003682343036008E003685D
:10143000494C2340036003E00368474C23400360AA
:1014400010BD002A03D003680B43036002E0036869
:101450008B430360704710B58368FF242402234048
:10146000836083680B438360C3682340C360C368A1
:101470001343C36010BD10B5002A19D08B79002B1F
:1014800002D08B79012B08D1036810242343036019
:1014900003695B085B0003610EE08B79022B02D0CD
:1014A0008B79032B08D103695B085B00036103E0C0
:1014B000036810242340036010BD4160704701465B
:1014C0004868C0B27047002904D0026808231A4354
:1014D000026003E0026808239A4302607047002913
:1014E00004D0026804231A43026003E00268042364
:1014F0009A430260704710B500220B888C88234302
:101500000C8923438C8923439AB2C26110BD002900
:1015100005D0C269FF2301331A43C26104E0C269E6
:101520000D4BF03B1A40C261704702460020136920
:101530000B40002B01D0012000E0002070474161EA
:101540007047000080E100E000000240000400401D
:1015500060E376410000E03FEFFF000010480069C3
:10156000042108430E49086130BF70470C480069E8
:10157000042188430A49086130BF704700F09CF994
:1015800000F0E3FB0BE000F0FFF9032005490870D1
:1015900000200549087000F006FDFFF7DFFFF2E7C5
:1015A00000ED00E0000000200100002010B5002840
:1015B00019DBF84A03231B02D21883089B00D25878
:1015C0008307DC0EFF23A3409A438B071B0E84077F
:1015D000E40EA3401A43EF4B032424021B19840892
:1015E000A4001A5118E0EC4A03071B0F083B9B08A4
:1015F0009B00D2588307DC0EFF23A3409A438B073E
:101600001B0E8407E40EA3401A43E34B0407240F88
:10161000083CA408A4001A5110BD10B5DF48E049E9
:1016200008627D246401601EDE49884200D90CE016
:10163000601EDD4948610321081FFFF7B7FF002046
:10164000D94988610720086100BFD848D44940398A
:10165000086200BFD2484038006B012109030840EE
:101660000028F7D0CD48401ECD49086210BD1FB5F7
:101670000F20CB4940398860CD48C86000216846BA
:1016800001738173042002906846C173417302A9FB
:10169000C848FEF7CBFD0121684601730021817324
:1016A000402002906846C173417302A9C248FEF708
:1016B000BDFD012168460173002181732020029045
:1016C0006846C173417302A9BB48FEF7AFFD012113
:1016D0006846017300218173102002906846C1732F
:1016E000417302A9B448FEF7A1FD03220521B248C7
:1016F000FEF767FE03220221AE48FEF762FE0322D8
:101700000621AD48FEF75DFE1021684601800021EC
:10171000418081800121C1806946A848FFF75BFDB7
:101720000121A648FFF769FD1020029000216846BC
:101730004173017302A9A248FEF778FD1FBD1FB5D2
:1017400000216846017381734020029001216846A0
:10175000C1730021417302A99648FEF767FD01217C
:101760006846017300218173202002906846C1738E
:10177000417302A98F48FEF759FD052206218D48C5
:10178000FEF71FFE052211468A48FEF71AFEE120E9
:101790004002009001216846017100214171012140
:1017A00081716A4687498848FFF788FD0122114602
:1017B0008548FFF746FE012202218348FFF741FEDC
:1017C000012211468048FFF725FE1FBD1CB50220EF
:1017D0000090002168464171012101710021817151
:1017E000C17169467948FEF721FD0420009000216F
:1017F000684641710121017100218171C171694601
:101800007248FEF713FD08200090002168464171E0
:10181000017169466848FEF709FD1CBD0EB56048B8
:101820004038C0680121C90308435D494039C86098
:101830006748FFF7B3F8042000908003029001206E
:10184000019069466248FFF70DF901216048FFF7F2
:1018500049F902215E48FFF79BFB012220215C48E9
:10186000FFF70DFC012240215948FFF708FC1E201C
:10187000002805DBC206D20E01219140454A1160C5
:1018800000BF04211E20FFF791FE01215048FFF701
:1018900035FC0EBD10B54148FEF7B2FD0020FEF745
:1018A000B5FD4B204002FEF7AEFDFEF7C6FD3B48FE
:1018B000401EFEF7A5FD10BD10B5FFF7AEFEFFF709
:1018C000D6FEFFF73CFFFFF7A9FFFFF77FFFFFF70B
:1018D000E1FF10BD38B505462C07240F0A2C02DAAB
:1018E0002046303001E020463730694608702C1120
:1018F0000A2C02DA2046303001E020463730C1B2EF
:101900006846417041783048FFF7D7FD00BF02219B
:101910002D48FFF70AFE0128F9D102212A48FFF7D6
:101920000EFE684601782848FFF7C7FD00BF022178
:101930002548FFF7FAFD0128F9D102212248FFF7D7
:10194000FEFD38BD10B504460FE021781E48FFF7B4
:10195000B4FD00BF02211C48FFF7E7FD0128F9D1C3
:1019600002211948FFF7EBFD641C20780028ECD118
:1019700010BD10B508211048FEF79FFC002801D1CA
:10198000012010BD0020FCE710B504210F48FEF730
:10199000DCFC10BD00E100E01CED00E09966AA55FA
:1019A00040000240FFFFFF0000E000E00502695A2E
:1019B00012080000001C024000180240000800400D
:1019C00000140240001900400004004000100240D2
:1019D0000030004010B504211948FEF7B8FC10BDD6
:1019E00010B502211648FEF7B0FC10BD10B502215B
:1019F0001348FEF7ACFC10BD0020C043002805DBF7
:101A0000C206D20E012191400E4A116000BF0E485D
:101A10000088002804DD0C480088401E0A49088020
:101A2000704710B520210948FFF7B6FB10BD0649E5
:101A3000088000BF044909880029FBD170470000D5
:101A40000010024080E200E0020000200030004070
:101A500010B5044621463648FFF7DBFB00BF802166
:101A60003348FFF7E7FB0028F9D03148FFF7D3FBF5
:101A700010BD70B505460C4610212E48FEF767FCD8
:101A80002846FFF7E5FF2046FFF7E2FF102129482F
:101A9000FEF75BFC70BD70B504460025102125489B
:101AA000FEF755FC2046FFF7D3FFFF20FFF7D0FFDE
:101AB000054610211F48FEF748FC284670BDF8B5C2
:101AC00005460C461646002710211A48FEF73FFC33
:101AD000202129430846FFF7BBFF00BF05E020781F
:101AE000FFF7B6FF641C781CC7B2B742F7DB1021C2
:101AF0001048FEF72AFCF8BDF8B507460D46164615
:101B0000002410210B48FEF722FC3846FFF7A0FF07
:101B100000BF05E0FF20FFF79BFF2855601CC4B203
:101B2000B442F7DB10210348FEF70FFCF8BD0000BC
:101B3000000800400018024008B5FEA000680090B0
:101B4000042269460F20FFF7BAFF08BD10B5012136
:101B50002F20FFF78EFF10BD08B503213F20FFF7B0
:101B600088FF00BF1F20FFF796FF694608700878BE
:101B70008007800F0028F5D103213F20FFF779FF70
:101B800000BF1F20FFF787FF6946087008788007AD
:101B9000800F0028F5D101213520FFF76AFFA02131
:101BA0003220FFF766FF04212A20FFF762FF0021A1
:101BB0002A20FFF75EFF88213220FFF75AFF01211C
:101BC0006846017021214170022269461320FFF707
:101BD00076FF01216846017020214170022269468A
:101BE0001320FFF76CFF00213520FFF742FF08BDEF
:101BF00010B551215020FFF73CFF7A212020FFF73C
:101C000038FF53215020FFF734FF00213520FFF724
:101C100030FF1E213D20FFF72CFFFFF79DFF5621CF
:101C20005020FFF726FFFFF787FF10BD08B5C2A0C1
:101C30000068009051215020FFF71BFF78212020E1
:101C4000FFF717FF53215020FFF713FF18213D2006
:101C5000FFF70FFF01213520FFF70BFF0222694636
:101C60001320FFF72CFFA0213E20FFF702FF562193
:101C70005020FFF7FEFE08BD38B5044668460470E4
:101C80002004010E684641702002010E68468170F2
:101C9000032269460720FFF712FF38BD38B5044616
:101CA000684604702004010E684641702002010E4F
:101CB00068468170032269461120FFF700FF38BD96
:101CC00010B5002453215020FFF7D3FE0420FFF766
:101CD000E2FE044656215020FFF7CBFE204610BD01
:101CE000FEB504460E46022269460420FFF704FFB3
:101CF00068464078801C30706846007820706846DE
:101D0000407860706846007807073F0F684645785E
:101D1000002F04D0022F03D0062F0AD101E000BF0C
:101D200000BF0622A11C0B20FFF7E6FEA81FC5B2CC
:101D300001E0002500BF00BF002D05DD2A46214639
:101D400008316120FFF7D8FEFEBD3EB5512150207D
:101D5000FFF78FFE53215020FFF78BFE0021352027
:101D6000FFF787FE8C213620FFF783FE18213D20E8
:101D7000FFF77FFE51215020FFF77BFE00BF53216C
:101D80005020FFF776FE0021684601724172012162
:101D90008172032202A90020FFF791FE8E213620D6
:101DA000FFF767FE88213720FFF763FE8821382080
:101DB000FFF75FFE8E213920FFF75BFE5121502097
:101DC000FFF757FE1E20FFF766FE1F20FFF763FE9A
:101DD0000446802CD3D11E20FFF75DFE044657A099
:101DE000FFF7B0FD2046FFF775FD58A0FFF7AAFDED
:101DF00078212020FFF73DFE06212620FFF739FE3F
:101E00007A212020FFF735FE56215020FFF731FEC2
:101E1000FFF792FE062269460820FFF76DFE4CA0F0
:101E2000FFF790FD69464879FFF754FD6946087948
:101E3000FFF750FD6946C878FFF74CFD6946887882
:101E4000FFF748FD69464878FFF744FD6946087882
:101E5000FFF740FD3DA0FFF775FD53215020FFF730
:101E600008FE7F206946087280204872022202A97B
:101E70001420FFF724FE02206946087243204872AE
:101E8000022202A90F20FFF71AFE0820FFF703FE27
:101E900069464872487A002801D112204872C02150
:101EA000684601722D218172032202A90420FFF7E6
:101EB00006FE80216846017200214172022202A9B9
:101EC0000C20FFF7FCFD812168460172222141723E
:101ED000022202A91320FFF7F2FD02212120FFF7C1
:101EE000C8FD30213C20FFF7C4FD30213E20FFF724
:101EF000C0FD3821684601720F21417200218172B4
:101F0000032202A90220FFF7DAFD80216846017250
:101F100070214172212181724021C172042202A9E3
:101F20000B20FFF7CCFD71212920FFF7A2FD102126
:101F3000684613E002FFFFFF8102000063686970DA
:101F40002076657273696F6E3D0000000D0A000017
:101F5000426C65416464723D000000000172022120
:101F60004172022202A90A20FFF7A9FD0221684658
:101F7000017212214172022202A90D20FFF79FFD7A
:101F800001216846017207214172022202A90E2036
:101F9000FFF795FD56215020FFF76BFD0121202012
:101FA000FFF767FD3EBDFEB5002425276148007898
:101FB000614909784018C5B20020019000260090C0
:101FC000002D00D1FEBDFFF713FE39462120FFF79B
:101FD00050FD1E225949A020FFF771FD02216846DD
:101FE000017224214172022202A90320FFF767FD3A
:101FF000FF216846017280214172022202A90E204F
:10200000FFF75DFD4E48FFF749FEFFF79FFD642097
:102010004C4908808AE010214B48FEF74EF9002811
:102020007DD10E20FFF737FD044621462E20FFF715
:1020300020FDE007C00F002823D03E48007800288C
:102040000DDD3C480078401E3A4908700C212220E2
:10205000FFF70FFD7D208001FFF70EFE10E03648F0
:10206000007800280CDD34480078401E32490870A2
:1020700009212220FFF7FDFC7D208001FFF7FCFDF8
:1020800054E0FFF759FD40202040002821D0FFF701
:1020900017FE009001A92D48FFF722FE2CA0FFF7A4
:1020A00051FC0098FFF716FC2BA0FFF74BFC002615
:1020B00008E02649885DFFF70DFC28A0FFF742FCE9
:1020C000701CC6B2684600798642F2DBFFF75CFC02
:1020D00005E010202040002801D0FFF781FC0220FD
:1020E0002040002821D0FFF781FCFFF773FC64201B
:1020F00014490880781CC0B20746272800DD252730
:1021000039462120FFF7B5FC681EC5B2002D03D16A
:10211000FFF78CFD0BE002E0FFF718FD05E0094832
:102120000088002801D1FFF707FD00BF73E700BF5B
:1021300000BF47E70000002001000020040000204D
:1021400050C30000020000200014024024000020C0
:102150000D0A52585B0000005D3A2000200000008C
:1021600070477047704700000246C80FC0078143A0
:102170004B0030B54B405B009B0D20D01923DB0694
:10218000C91801231B05994220DB0324A407042559
:102190001346AB400BD3002B04D1EB0613409B003E
:1021A000E34204D401246407002312195941FF2398
:1021B0001B0599420BD2C9000143500F09E0CB0225
:1021C00004D501430803024305D0054830BDFF2173
:1021D000C905084330BD084607210905884330BDBD
:1021E0000000C07FF0B50C46871A9C410D46861A48
:1021F0009D4103D2C01BA141D21963410D0D1F0D9A
:10220000C94EEC1BAE435CD07F057F0D0026002F2E
:1022100051D02D05AC46A943DD020123ED0A1B0573
:102220001D4320231B1B24D41746E7403818714157
:102230002F46E740CC199D402818314661410C0DCE
:1022400027D161449A4013D50023401C59415200C4
:102250000ED14008400001224B005205D34207D363
:1022600005204007C14201D5B04900E0B0493046E1
:10227000F0BD6B00002A00D001229A181F23203CD9
:102280001B1B01D5002302E0E540281871410C0D0D
:10229000D7D0012424050919C407CD0740084908EF
:1022A000E40F28436144002CD5D00024401C614138
:1022B0009A40D0D1CDE76A05520DD9D1C90FC907CF
:1022C000D5E79C4D4E00002801D0012400E00024F9
:1022D00034195F00002A01D0012600E00026BE1953
:1022E000954FAC420CD8AE420AD8B44206D0012574
:1022F0006D05EC42BCD010461946F0BD9942FCD0A9
:1023000000203946F0BDF0B51FB40C460F46811AC7
:102310009F412546861A9D4106D20125ED076F4053
:10232000401ABC4152187B41210D1E0D8D1BAC463D
:102330007D4D8D437ED075056D0D7CD00D05AE466F
:10234000AC431B031B0B794D52429D412023664633
:102350009B1B14D31746F740381800260090744191
:1023600060462F460741E41900989D4028186641B1
:1023700016D4714671189A4025D5012320E0931890
:102380002A466A415200002B00D0521C1E23203ED8
:102390009B1B002B61DD3541EE1728186641E8D5FF
:1023A000001876415B1C9A4000D3401C4B05F31883
:1023B0001524E34010D3002B52D071467118D30F6F
:1023C000C01802D3491C05B0F0BD0123DB079A42B7
:1023D000F9D140084000F6E701225205B21801D1B8
:1023E000002853D00123CC0ADB029943891E002A1E
:1023F00008D1020C03D0020C0004103902E002469E
:10240000002020390023550B05D112020823550B5B
:1024100001D152010D23550C01D112011B1DD50C08
:1024200001D192009B1C150D01D152005B1C20258F
:10243000EE1A01E02CE022E00546F54015439840F5
:10244000CA1AE10769181305C918002ABBDA032064
:1024500040070818C10FC9070FE071466118B2E7BD
:10246000F10740080843711071444A000CD0012361
:102470005B059A42A7D2C90FC9070020A3E7490507
:10248000490D26D1002001E00028F4D100219AE76F
:10249000284D6600002801D0012100E000217118BC
:1024A0005F00002A01D0012600E00026BE19224F5D
:1024B000A94210D8AE420ED8B14208D001256D0510
:1024C000E94206D01946A802414010467BE79C42EB
:1024D00001D0214677E70020394674E710B50C4655
:1024E0005C4005D50124E4076340FFF70CFF10BDF5
:1024F000FFF778FE10BD30B40C465C4004D50124D3
:10250000E407634030BC6DE630BCFCE670B50124E6
:10251000E40761400D465D4002D4FFF763FE70BDE5
:102520006340FFF7F0FE70BDFF0700000000F0FF02
:102530000000F07F0000E0FF0000F87FF0B5F94DEB
:102540000C091E092C402E402F468BB0A7437DD08E
:10255000B543FCD0002E7AD0002CFCD00D465D4057
:10256000ED0F2543AC1BFF25AD0464190894C5028B
:10257000440DC9022143500DDC0204430120C00771
:1025800001430443D2020191200C110C00958C46AA
:10259000010423468B430A9161460904E24D8A43B4
:1025A0000991010A7D4449198039097805464D434E
:1025B00001266D18F605751B6943C90C640B891C4F
:1025C0004C436418B5012C1B250C2E04B4434C431A
:1025D0004D43210C691889090591009DE90701D037
:1025E0000121C90704912C4601996708CD072F43A3
:1025F0004C08059DE10B4D432D0C2946664675435D
:1026000002950D4645432E46029D7D1BB441009523
:102610000D465D4301942C0C2F040D465543AE46E8
:102620002D0C3D43029503947546049C2D04641BB8
:10263000049406D2029C039D641C002675410395F8
:10264000029401AC70CC009F7D1B01E03EE162E191
:10265000B44109040095079101940599A4086143C8
:10266000090C0C464443650BE7040C46664674436C
:10267000A646640B3C43039502947446049DE4040F
:102680002C1B049406D2029C039D641C00267541F9
:102690000395029401AC70CC009F7D1BB441019462
:1026A0000C465C430095650FE7000C465443A64674
:1026B000640F3C43039502947446049DE4002C1B74
:1026C000049406D2029C039D641C00267541039568
:1026D000029401AC70CC009F7D1BB441AE09AF06E3
:1026E000049DC900AD092F43049DA406AD060495C1
:1026F000079D344369180791059DE10B4D432D0C4F
:1027000029466646754302950D4645432E46029D71
:102710007D1BB44100950D465D4301942C0C2F04A4
:102720000D465543AE462D0C3D4302950394754628
:10273000049C2D04641B049406D2029C039D641C1B
:10274000002675410395029401AC70CC009F7D1B5F
:10275000B44101948C050694079C890A6118009580
:102760000791019C0599A4086143090C0D46454356
:10277000680BEF040D46644665436C0B3C43049FB5
:10278000ED047D1BAC4602D20025641C6841009E0E
:10279000019D371B85410846584301950C46460F5D
:1027A000C5005443600F28436546E4002C1B02D249
:1027B0000025401C6E41019D3F1AB5412846BD09C8
:1027C000800628438446A009BF064E020699A40647
:1027D00076180743079D002068410A99079019431E
:1027E0000020099B00906046FF1913434041E20F0F
:1027F00064003A43A4460446D71A8C41A04203D948
:102800000120009020463A46C70F94184041624686
:10281000D20F2243644664000494009CBE466400C8
:10282000D71AA446044602978C417746002F01D15F
:10283000A04204D96046401C8446029A2046C40F38
:10284000A64694184041049A0546D20F2243644696
:102850006400D31A8D417146002901D1A84202D9E2
:1028600028461A46641C10430122002800D0164353
:1028700061020020079B891904465C410223002C59
:1028800002DB491813466441089DCE0A2D145D19D8
:102890004B056705E10A2C050D1908993E43C90748
:1028A0006940002B08D0934006D30022761C51418A
:1028B000002B01D1760876001C4A002D43DB15421F
:1028C00041D0AA433FD030460BB0F0BD06180D46AC
:1028D0004D41174C7642AC411AD395181C465C41C9
:1028E000134A6D42A24113D3012252054C00D44237
:1028F0000AD15C00D4420BD04B4002D59202114366
:10290000E2E749004908DFE75940C90FC90718E065
:1029100000200849D8E7054801420DD10342F7D00D
:10292000F2E700000000FF072A0700000000F07F28
:102930000000E0FF0000F87F114859400143C01239
:1029400041400020C0E70123089A9B069A4205DC1B
:10295000032252078918C90FC907B5E70522520794
:102960008918074A1143D2125140ADE770B5154698
:102970001C4602460B4628462146FFF7DFFD70BD88
:10298000FFFFFF7F1F22030C02D10F22000402D0A1
:10299000030E03D004E00020014670470002083A0D
:1029A000030F01D10001121F830F01D18000921E7D
:1029B000002801DB4000521E120551184205C012CA
:1029C000411810467047C10FC90700D0404201228C
:1029D00092071143D6E701218907D3E7F0B58B4C65
:1029E0000F09254689B0BD437BD01D092646AE435D
:1029F000FAD00E465E402740F60F3E43254071D088
:102A000024012142FBD0FF24AD19A4042D1B039502
:102A100001252D05DB02DB0AC9022B43C90A294324
:102A20001E010901040F130F050121431701880B33
:102A3000820391432D098C46A90B1E438A039543BB
:102A4000B30B9A0396433F09BA0B9403A74302962C
:102A50002E467E430497B6464E19D7190C4601966A
:102A6000544305977E43371B7646BF1B3601B64657
:102A7000BE0B361900967646BC043719009C01D36C
:102A8000641C00946400002F01D001263443029E90
:102A9000049F754366467E430496760034196E00A3
:102AA00034190094029C019E1C196643751BAE46A6
:102AB000069465464519059C05956C435943754632
:102AC0000891691A0191049E01465143A41B049187
:102AD000611A009C0791E10605D0610901221143AA
:102AE00002E072E06EE06109089D00272C0A2D06C5
:102AF0006918049D7C412A0A2D066918019D6241CE
:102B0000AC0DAD026D185441079A910D9202551902
:102B10006141029A644658435443069B059A5A43BE
:102B2000121A131B9A0E9B015B187A41010B0005C8
:102B3000C3185141220A200644195A419A4200D230
:102B4000491C01204002814203D315230226F6438B
:102B500002E014230326F6432020C51AA940174695
:102B6000AF40DA400A4320460399D840091473184D
:102B700019055118039A3843D2075140AC4009D087
:102B80000122944006D30022401C5141002C01D167
:102B9000400840001E4A934212D301220398920635
:102BA000904207DB0520400709181A480143C0126C
:102BB000414004E0032040070818C10FC907002066
:102BC00009B0F0BD0020F107FAE705180C464C41AA
:102BD00011486D42A04115D394181A465A410E4827
:102BE000644290410ED301204A004005824209D33D
:102BF0005A00824206D35940C90F084AC90700202B
:102C00001143DDE700200649DAE700000000FF0776
:102C1000FE070000FFFFFF7F0000E0FF0000F07FE5
:102C20000000F87F10B501469E240002CA15A307D4
:102C3000002A02D01843002A04DBA21A002A0CDD65
:102C4000D04010BD1206120E01D140004008A21A59
:102C500003D4D04040420028F3DDFF224800120692
:102C6000904201D9002010BDC817C043584010BD84
:102C7000754600F023F8AE46050069465346C00885
:102C8000C000854618B020B5FDF774FA60BC002777
:102C90004908B6460026C0C5C0C5C0C5C0C5C0C528
:102CA000C0C5C0C5C0C5403D49008D4670470446FB
:102CB000C046C0462046FDF74EFA00000048704767
:102CC0004C00002001491820ABBEFEE726000200A0
:102CD000704780807F7E7D7C7B7A79787776767589
:102CE0007473727171706F6E6E6D6C6C6B6A6A6901
:102CF0006868676666656464636362616160605F9B
:102D00005F5E5E5D5D5C5C5B5B5A5A595958585713
:102D1000575656555555545453535252525151507B
:102D200050504F4F4F4E4E4D4D4D4C4C4C4B4B4BCE
:102D30004A4A4A4949494848484747474746464614
:102D4000454545444444444343434342424242414F
:102D500041410000742D000000000020240000000C
:102D600004010000982D0000240000208C080000C1
:102D700020010000000000000201041AFF4C0002C4
:102D800015FDA50693A4E24FB1AFCFC6EB0764785B
:082D900025273252B0B6000005
:04000005000000C136
:00000001FF
